:020000040800F2
:10000000880800209D0100083B2300086F1F00089E
:1000100039230008DD0400089137000800000000C3
:10002000000000000000000000000000852A000819
:100030006F060008000000005D230008872A000802
:10004000B7010008B7010008B7010008B7010008B0
:10005000B7010008B7010008B7010008B7010008A0
:10006000B701000871060008B7010008B7010008D1
:10007000B7010008B7010008B7010008B701000880
:10008000B7010008B7010008B7010008B701000870
:10009000B7010008B7010008B7010008770600089B
:1000A000B7010008B7010008B7010008B701000850
:1000B000D1310008B7010008B7010008B7010008F6
:1000C000B7010008B7010008B7010008B701000830
:1000D000B7010008B7010008793700088537000824
:1000E000B7010008B7010008B7010008B701000810
:1000F000B7010008B7010008B7010008B701000800
:10010000000000000000000000000000B70100082F
:10011000B7010008B7010008B7010008B7010008DF
:10012000B7010008B7010008B7010008B7010008CF
:10013000B7010008B701000800000000000000003F
:10014000B7010008B7010008B7010008000000006F
:10015000000000000000000000000000000000009F
:100160000000000000000000B7010008B70100080F
:10017000B7010008000000000000000000000000BF
:1001800000000000B7010008DFF80CD000F0C4F850
:1001900000480047A53D0008880800200648804721
:1001A00006480047FEE7FEE7FEE7FEE7FEE7FEE75C
:1001B000FEE7FEE7FEE7FEE7112B000889010008D5
:1001C000202A04DB203A21FA02F00021704721FAAC
:1001D00002F3D040C2F12002914008431946704713
:1001E00040EA01039B0703D009E008C9121F08C0B9
:1001F000042AFAD203E011F8013B00F8013B521E39
:10020000F9D27047D2B201E000F8012B491EFBD2AF
:1002100070470022F6E710B513460A460446194611
:10022000FFF7F0FF204610BD421E12F8013F002BE1
:10023000FBD111F8013B02F8013B002BF9D17047CB
:10024000421C10F8011B0029FBD1801A704703469D
:1002500011F8012B00F8012B002AF9D1184670473C
:1002600070B5064603F0AAFA046805460A22002182
:10027000304600F018F82C6070BD30B50B460146D2
:1002800000202022012409E021FA02F59D4205D335
:1002900003FA02F5491B04FA02F52844151EA2F1DF
:1002A0000102F1DC30BD2DE9F04791460F46804652
:1002B0000446002614F8015B2DB100F03FF80068F9
:1002C000405DC007F6D12B2D02D02D2D18D0641E15
:1002D0004A463946204600F035F827B13968A14230
:1002E00001D1C7F8008071054FF002040BD54042E0
:1002F000002803DD03F062FA0460A007BDE8F08780
:1003000046F48066E4E70028F8DA03F057FA046060
:100310006FF00040F2E70000064C074D06E0E06891
:1003200040F0010394E8070098471034AC42F6D33C
:10033000FFF72EFF084100082841000800487047D9
:10034000044100082DE9F05F824600780027154639
:100350008B460AF10104B946302801D09DB113E063
:1003600014F8010B0127782803D0582801D045B193
:100370000AE00DB1102D07D10027102514F8010B4C
:1003800002E0082500E00A250026B0460EE005FB45
:10039000080005FB06F1012701EB10461FFA80F863
:1003A000B6F5803F00D3B94614F8010B294600F09A
:1003B00018F80028EBDABBF1000F05D00FB1641E6E
:1003C00000E05446CBF80040B9F1000F06D003F02E
:1003D000F5F902210160C81EBDE8F09F48EA064019
:1003E000FAE73A2800D2303820F02002412A01D31F
:1003F000A2F13700884201D34FF0FF3070472DE95A
:10040000F04114460F4606464FF090450122402128
:10041000284600F0C6FB01220221284600F0C1FB5D
:1004200000222021284600F0BCFB44EA07244FF6B6
:10043000FF774FF0000276B102212E46284600F0E9
:10044000B0FB002500222021304600F0AAFBA005C9
:1004500028D5012227E04021284600F0A2FB0026F3
:1004600000222021284600F09CFBA00501D5012296
:1004700000E000221021284600F093FB01222021F9
:10048000284600F08EFB761CF6B207EA44040A2EDA
:10049000E6D300222021284600F083FB01224021E0
:1004A000284617E000221021304600F07AFB012296
:1004B0002021304600F075FB6D1CEDB207EA4404C4
:1004C0000A2DBFD300222021304600F06AFB012212
:1004D00002213046BDE8F04100F063BBFEE70000BA
:1004E000FEB504464FF0FF30A4F84C0000201D4933
:1004F00004F132021C4D11E00B5C5B2B05D00B5C50
:100500002C2B02D00B5C5D2B06D1B4F84C305B1C5D
:100510001BB2A4F84C309854401CC0B22B789842BF
:10052000EAD3002518E063190E4913F8320F6F461D
:10053000421C5B78D2B2181A401EC6B21144324631
:100540003846FFF74DFE0020B8556846FFF788FE95
:1005500024F815006D1CEDB2B4F94C00A842E2DCA1
:10056000FEBD000048010020090000202DE9F043F5
:100570009DB064222C496846FFF732FE00252B4FC0
:10058000DFF8AC802B4C2E462078012848D018F894
:10059000052029A119A803F0FDF819A96846FFF75D
:1005A00043FE6D1CEDB2152DEED324A16846FFF776
:1005B0003BFE6846FFF744FE82B24FF4FA794B46A1
:1005C00069461F4801F078FC1EA16846FFF73FFE10
:1005D000DFF8788000252078012823D018F805203E
:1005E00015A119A803F0D6F819A96846FFF71CFE53
:1005F0006D1CEDB2152DEED310A16846FFF714FE69
:100600006846FFF71DFE82B24B4669460C4801F072
:1006100053FC2078012800D126701DB0BDE8F0837E
:100620003E70C2E73E70E7E7E43F000805000020A7
:10063000160300200700002025642C007D0D0A0011
:1006400088030020316B3A207B0000002F0300203C
:1006500010B5002142F2107406E023460222521C1B
:100660009A42FCD3491C89B28142F6D310BD70472F
:10067000082000F0BDB910B5202000F0B9F9BDE8A0
:100680001040802000F0B4B906490020C861064837
:10069000016941F004010161016941F0400101611A
:1006A000704700006804002000200240064A002134
:1006B000D16106490A6942F002020A61486108698B
:1006C00040F04000086170476804002000200240AC
:1006D000044B0022DA61044A136943F001031361F9
:1006E0000180704768040020002002400A49002071
:1006F000CA68D306094A04D5D06940F00200D06127
:100700001020CB685B0705D5D36943F00103D361A3
:1007100040F00400C86070470020024068040020D8
:1007200070B5054600F042FA0646104C09E0681C18
:1007300007D025B100F03AFA801BA84201D9032066
:1007400070BDE068C007F2D1E068800601D52020C6
:10075000E060E068C00602D4E068400703D5FFF718
:10076000C5FF012070BD002070BD000000200240C8
:1007700070B5002407E000BF30F814502E0A0E5563
:100780000E19A41C75709C42F6D9002108E000BF28
:1007900000EB4104E48B250A55545518891C6C70F4
:1007A0009942F5D970BD00002DE9FF410F4605467D
:1007B000184900200390C8684969CDE900051E4624
:1007C0009046029100F0FEF803A9684600F05CF83C
:1007D000002409E0381905EB44010088002342BADF
:1007E000012000F0AFF8A41CB442F3D300240BE0C6
:1007F00008EB040005EB44010088002342BA012005
:100800001E3100F09FF8A41CB442F1D300F090F820
:10081000BDE8FF81C03F000810B590F8211000240A
:10082000022903D004218163012418E001680A68C9
:1008300022F00E020A6001680A6822F001020A60D2
:1008400090F84020C36B012101FA02F25A6080F84F
:100850002110002180F82010416B01B1884720460B
:1008600010BD000070B5044600F0A0F90546601CFC
:1008700002D004480078044400F098F9401BA042DC
:10088000FAD370BD100000202DE9F0470546264838
:100890000F460126017E01290FD0012181460176F4
:1008A0002868DFF888804CF25034012808D0A2462E
:1008B0002046FFF735FFA0B130E00220BDE8F08709
:1008C0002046FFF72DFF00BBFFF7DEFE2046FFF7B7
:1008D00027FFD8F81010064621F00401C8F81010C0
:1008E0001CE04FF0FF3038606C6811E02046FFF7E5
:1008F000DDFE5046FFF714FFD8F81010060021F077
:100900000201C8F8101001D03C6007E004F5006453
:10091000D5E9010100EBC120A042E7D8002189F808
:1009200018103046CAE7000068040020002002408A
:100930000348016941F08001016100207047000017
:10094000002002402DE9F05F07461C48884600243D
:10095000017E15461E46012909D0012181460176F6
:100960004CF2503A5046FFF7DBFE18B122E002206D
:10097000BDE8F09F012F02D0022F00D00427D346FC
:10098000DFF83CA0220128463146FFF719FC81B26E
:1009900008EB4400FFF79CFE5846FFF7C1FEDAF86B
:1009A000102022F00102CAF8102018B9641CE4B229
:1009B000BC42E7D3002289F81820D9E76804002058
:1009C00000200240064900200A69120607D5054AA0
:1009D0004A60054A4A600969090600D50120704746
:1009E0000020024023016745AB89EFCD02F008B833
:1009F000044910B50A68024202D00860FFF7F6FF0A
:100A000010BD0000140401402DE9F84FDFF864B177
:100A100000234FF0010C4FF0030A4FF00F090BF1C8
:100A2000040EA0E00CFA03F6324072D04C68022C9F
:100A300001D0122C0ED1DC0800EB8408D8F820403D
:100A40005D07EF0E09FA07F5AC430D69BD4025437C
:100A5000C8F8205007685D0091F804800AFA05F490
:100A600008F00308A74308FA05F848EA0708C0F8A1
:100A700000804F68012F05D0022F03D0112F01D025
:100A8000122F11D18768D1F80C80A74308FA05F816
:100A900048EA0708C0F808804768B7430E79C6F3EC
:100AA00000169E403E434660C668A6438C68AC4034
:100AB0003443C4604C68E40054D52F4CA56945F01C
:100AC0000105A561A46923F0030504F00104009465
:100AD0002A4C2E19B4689D072F0F09FA07F5AC436D
:100AE000B0F1904F04D0264DA84203D1012512E069
:100AF000002510E0234DA84201D102250BE0224D34
:100B0000A84201D1032506E0204DA84202D10425C8
:100B100001E027E00525BD402543B560DBF8004036
:100B20005D464E689443F60300D514432C60DEF80E
:100B3000004075464E689443B60300D514432C60BC
:100B40000C4D08352C684E689443F60200D51443CA
:100B50002C60084D0C352C684E689443B60200D5C5
:100B600014432C605B1C0A6832FA03F47FF45AAF1A
:100B7000BDE8F88F00040140001002400000014071
:100B80000004004800080048000C0048001000481D
:100B90000069084000D00120704742694A40426124
:100BA00070470AB18161704781627047014880686F
:100BB0007047000010000020074908B58A6942F01C
:100BC00001028A61896901F00101009103490A6803
:100BD00002430A6008BD000000100240000001400E
:100BE000024881680278114481607047100000203B
:100BF000074810B5016841F010010160032000F0C2
:100C000095F8002000F006F800F024F8002010BD50
:100C10000020024070B50D4D04464FF47A712878DB
:100C2000B1FBF0F00A490968B1FBF0F000F07BFD80
:100C300048B9102C07D200222146501E00F056F869
:100C400000206C6070BD012070BD0000100000200D
:100C50001C0000201E4808B5816941F00101816136
:100C6000816901F001010091C16941F08051C161C8
:100C7000C06900F080500090032000F057F8002277
:100C800011466FF00B0000F031F8002211466FF0B2
:100C90000A0000F02BF8002211466FF0090000F066
:100CA00025F800221146501F00F020F800221146BE
:100CB000101F00F01BF800221146901E00F016F8DD
:100CC0000022BDE808401146501E00F00FB8000099
:100CD0000010024000F01F020121914040098000F5
:100CE00000F1E020C0F8001170470000F0B40E4B96
:100CF0001B680C46C3F30223C3F10705042D00D97A
:100D00000425191D072901D2002300E0DB1E01265E
:100D100006FA05F1491E214099409E40761E164074
:100D20003143F0BC01F00ABB0CED00E0064900F0D5
:100D3000070208684FF6FF03184040EA0220034A02
:100D400010430860704700000CED00E00000FA0559
:100D50002DE9F84F04460068804DC0036FD5E8695F
:100D60000026C00008D4E86940F08050E861E869D6
:100D7000012600F08050009079480168C90512D41E
:100D80000168804641F480710160FFF70FFF07465C
:100D900005E000BFFFF70AFFC01B642835D8D8F86C
:100DA0000000C005F6D5286A10F4407053D0A18821
:100DB00001F4407181424ED0286A4FF4803191FA9B
:100DC000A1F2B2FA82F29700664A4FF00108174486
:100DD00020F44070C7F8008491FAA1F1B1FA81F1D2
:100DE00002EB81010023C1F800342862C00732D031
:100DF000FFF7DCFE074641F2883A4FF0020907E0B0
:100E0000FFF7D4FEC11B514502D90320BDE8F88F7E
:100E100099FAA9F1B1FA81F141F040014846B8EBE5
:100E2000511F01D129680CE090FAA0F1B1FA81F1CB
:100E300041F04001B0EB511F02D1296A01E015E0F9
:100E4000696A99FAA9F0B0FA80F000F01F0008FA78
:100E500000F21142D4D0286A616820F4407008433F
:100E600028621EB1E86920F08050E8612078C00750
:100E700005D0286BA16820F0030008432863207880
:100E8000800705D5286BE16820F4403008432863CB
:100E90002078400705D5286B216920F440200843BD
:100EA00028632078800605D5286BE16920F01000C2
:100EB000084328632068800305D56868A16B20F487
:100EC0008000084368602078400605D5286B216AB9
:100ED00020F02000084328632078000705D5286B00
:100EE000616920F44010084328632078C00605D5C6
:100EF000286BA16920F440000843286320888005FE
:100F000005D56868E16A20F400000843686020782D
:100F1000000605D5E86A616A20F4F8700843E862C3
:100F20002088C00505D5E86AA16A20F478500843F6
:100F3000E8622088C00405D5286B216B20F48070FE
:100F4000084328632088800405D5286B616B20F452
:100F5000007008432863002058E70000001002409A
:100F600000700040000042422DE9F0470F460500A6
:100F700069D04A4E306800F00700B84209D23068A4
:100F800020F0070038433060306800F00700B842B6
:100F900059D12878424C800705D56068A96820F0AF
:100FA000F000084360602878C0073DD069680120E0
:100FB00001290DD0022923D05FF0020393FAA3F296
:100FC000B2FA82F242F02002520904D0226803E011
:100FD0004FF40033F2E7626A93FAA3F3B3FA83F3B0
:100FE00003F01F03984002422DD0606820F00300F8
:100FF00008436060FFF7DAFD804641F288390CE073
:101000004FF00073DAE700BFFFF7D0FDA0EB080157
:10101000494502D90320BDE8F0876068696800F09F
:101020000C00B0EB810FEFD1306800F00700B84240
:101030000BD9306820F0070038433060306800F08A
:101040000700B84201D00120E5E72878400705D520
:101050006068E96820F4E060084360602878000771
:1010600006D56068296920F4605040EAC1006060DC
:1010700000F052F86168F02292FAA2F201F0F00159
:10108000B2FA82F2D140074A515CC8400649086072
:101090000020FFF7BFFD0020BDE700000020024058
:1010A00000100240684000081C0000200148006851
:1010B000704700001C000020084809490068496882
:1010C0004FF4E06292FAA2F201F4E061B2FA82F225
:1010D000D140044A515CC840704700001C00002009
:1010E0000010024078400008084809490068496833
:1010F0004FF4605292FAA2F201F46051B2FA82F215
:10110000D140044A515CC840704700001C000020D8
:101110000010024078400008144B10B55A6814487B
:1011200002F00C0104291DD008291BD14FF47014C2
:1011300094FAA4F402F47011B4FA84F4E1400D4C72
:10114000DB6A615C0F2494FAA4F403F00F03B4FA91
:1011500084F4E340074C1034D203E35C03D5B0FBC6
:10116000F3F0484310BD0448484310BD001002404E
:1011700000127A004840000800093D002DE9F84FB0
:10118000040071D02078FB4DC0074FF0010625D038
:1011900068687704C0F38100012807D06868C0F34D
:1011A000810002281BD16868C00318D597FAA7F000
:1011B000B0FA80F040F02000400901D0286800E03B
:1011C000686A97FAA7F1B1FA81F101F01F0106FAF6
:1011D00001F1084265D060680028D2D061E0606803
:1011E000B0F5803F0BD010B1B0F5A02F17D0286814
:1011F00020F480302860286820F4802002E02868ED
:1012000040F480302860E86AA16820F00F000843AD
:10121000E862606820B3FFF7C9FC80460AE02868EE
:1012200040F480202860EAE7FFF7C0FCA0EB08004C
:10123000642872D897FAA7F0B0FA80F040F0200046
:10124000400901D0286800E0686A97FAA7F1B1FA6E
:1012500081F101F01F0106FA01F10842E4D020E01B
:10126000FFF7A4FC804607E0C7E000BFFFF79EFC45
:10127000A0EB08006428DCD897FAA7F0B0FA80F059
:1012800040F02000400901D0286800E0686A97FA21
:10129000A7F1B1FA81F101F01F0106FA01F108424C
:1012A000E4D12078DFF8D08280074FF0000A4FF0B9
:1012B000020759D568684FF0F80B10F00C0F07D0F3
:1012C0006868C0F3810002281BD16868C00318D485
:1012D00097FAA7F0B0FA80F040F02000400901D062
:1012E000286800E0686A97FAA7F1B1FA81F101F085
:1012F0001F0106FA01F108422BD0206901287CD198
:1013000027E0206988B396FAA6F0B0FA80F048F892
:101310002060FFF74BFC814606E055E1FFF746FCF5
:10132000A0EB0900022884D897FAA7F0B0FA80F061
:1013300040F02000400901D0286800E0686A97FA70
:10134000A7F1B1FA81F101F01F0106FA01F108429B
:10135000E4D028689BFAABF26169B2FA82F220F01D
:10136000F80091400843286025E0FFE796FAA6F1CF
:10137000B1FA81F148F821A0FFF718FC814605E099
:10138000FFF714FCA0EB09000228CCD897FAA7F0CD
:10139000B0FA80F040F02000400901D0286800E059
:1013A000686A97FAA7F1B1FA81F101F01F0106FA14
:1013B00001F10842E4D1207800076AD5A069A0B302
:1013C00096FAA6F0B0FA80F008EB8000C0F88064CE
:1013D000FFF7ECFB814605E0FFF7E8FBA0EB090017
:1013E0000228A0D897FAA7F0B0FA80F040F0600089
:1013F000B6EB501F02D128680CE077E197FAA7F00E
:10140000B0FA80F040F06000B7EB501F01D1286ABD
:1014100000E0686A97FAA7F1B1FA81F101F01F01C3
:1014200006FA01F21042D7D033E0FFE796FAA6F0B1
:10143000B0FA80F008EB8000C0F880A4FFF7B6FB9C
:10144000814605E0FFF7B2FBA0EB090002289CD81B
:1014500097FAA7F0B0FA80F040F06000B6EB501FAA
:1014600001D128680BE097FAA7F0B0FA80F040F0BD
:101470006000B7EB501F01D1286A00E0686A97FA54
:10148000A7F1B1FA81F101F01F0106FA01F2104251
:10149000D8D12078400774D5E8694FF00009C00022
:1014A00009D4E86940F08050E861E8694FF001092B
:1014B00000F08050009031480168C90512D40168DD
:1014C00041F480710160FFF771FB834606E000BFC5
:1014D000FFF76CFBA0EB0B00642875D82748006869
:1014E000C005F5D5E06801280AD008B1052811D05B
:1014F000286A20F001002862286A20F0040002E037
:10150000286A40F001002862E068C8B3FFF74EFB8C
:1015100083460DE0286A40F004002862F0E700BF2F
:10152000FFF744FBA0EB0B0141F2883081424BD81E
:1015300097FAA7F0B0FA80F040F04000B6EB501FE9
:1015400001D128680BE097FAA7F0B0FA80F040F0DC
:101550004000B7EB501F01D1286A00E0686A97FA93
:10156000A7F1B1FA81F101F01F0106FA01F2104270
:10157000D6D035E00010024000004242007000402A
:1015800000E034E0FFF712FB834607E0FFF70EFBB5
:10159000A0EB0B0141F28830814215D897FAA7F0F1
:1015A000B0FA80F040F04000B6EB501F01D128683F
:1015B0000CE097FAA7F0B0FA80F040F04000B7EBEB
:1015C000501F02D1286A01E083E0686A97FAA7F108
:1015D000B1FA81F101F01F0106FA01F21042D5D1F2
:1015E000B9F1000F03D0E86920F08050E861E069AC
:1015F00080B36968C1F38101022977D04FF080710F
:101600004F00022809D091FAA1F0B0FA80F048F812
:1016100020A0FFF7CBFA04465EE050468A4691FAD6
:10162000A1F1B1FA81F1C14648F82100FFF7BEFAF5
:10163000804605E0FFF7BAFAA0EB0800022848D878
:1016400097FAA7F0B0FA80F040F02000400902D0ED
:10165000286801E056E0686A97FAA7F1B1FA81F1CB
:1016600001F01F0106FA01F10842E3D1D4E90810A4
:101670000843696821F47411084368609AFAAAF073
:10168000B0FA80F049F82060FFF790FA044604E0D1
:10169000FFF78CFA001B02281BD897FAA7F0B0FAC4
:1016A00080F040F02000400901D0286800E0686A1E
:1016B00097FAA7F1B1FA81F101F01F0106FA01F1E1
:1016C0000842E5D01EE000BFFFF770FA001B0228B9
:1016D00002D90320BDE8F88F97FAA7F0B0FA80F09E
:1016E00040F02000400902D0286801E00CE0686A60
:1016F00097FAA7F1B1FA81F101F01F0106FA01F1A1
:101700000842E1D10020E5E70120E3E74FF0E021C6
:101710000428086903D020F004000861704740F0F5
:101720000400FAE7704710B5401EB0F1807F01D386
:10173000012010BD4FF0E02460610F21601700F020
:10174000FDFD0020A06107202061002010BD10B524
:10175000FFF7E8FF10BD70477047704730B590F84D
:101760003C20012A1FD0012280F83C2002685368E7
:1017700094680E4DAA4202D00D4DAA4203D123F423
:1017800070054B682B4323F070050B6889682B4369
:1017900024F080042143536002689160002180F8A6
:1017A0003C10084630BD022030BD0000002C014036
:1017B0000034014010B5040003D094F83D0010B18E
:1017C00007E0012010BD002084F83C00204600F016
:1017D0000DF8022084F83D00211D206801F0FEFC78
:1017E000012084F83D00002010BD000008B500680D
:1017F000B0F1804F12D10A48C16941F00101C161C5
:10180000C069002200F00100009011461C20FFF783
:101810006DFABDE808401C20FFF75CBA08BD000067
:10182000001002400168CA6842F00102CA60006804
:10183000016841F0010101600020704770B5044665
:1018400090F83C00012817D0012584F83C50022074
:1018500084F83D0022689068364E304020F47F4086
:1018600090600868502839D00DDC20285BD005DC5A
:1018700098B3102843D153E0022070BD302855D0D2
:1018800040283CD141E0602830D070280CD0B0F521
:10189000805F03D0B0F5005F31D112E0206881682D
:1018A000244A7032114016E0CB68D1E9012120684A
:1018B00001F0ECFC21688868304040F077008860D7
:1018C0001DE0CB68D1E90121206801F0DFFC206830
:1018D000816841F48041816011E01EE0CA68496876
:1018E000206801F0E5FC5021206806E0CA684968DC
:1018F000206801F0EEFC6021206801F0D1FC84F842
:101900003D50002084F83C0070BDCA6849682068DA
:1019100001F0CEFC40212068EFE700212068ECE7D1
:1019200010212068E9E720212068E6E730212068BF
:10193000E3E7000088FFFEFF704770B504460068CB
:1019400001694FF00005C943890715D4C168C9432F
:10195000890711D4E91E0161012020772068806980
:101960008007204602D0FFF7E7FF04E000F0A7F869
:10197000204600F0A5F8257720680169C94349078A
:1019800017D4C168C943490713D46FF0040101613A
:10199000022020772068806910F4407F204602D022
:1019A000FFF7CAFF04E000F08AF8204600F088F84C
:1019B000257720680169C943090716D4C168C9435E
:1019C000090712D46FF00801016104202077206814
:1019D000C0698007204602D0FFF7AEFF04E000F0A8
:1019E0006EF8204600F06CF8257720680169C9433D
:1019F000C90617D4C168C943C90613D46FF01001D2
:101A00000161082020772068C06910F4407F2046DB
:101A100002D0FFF791FF04E000F051F8204600F0FB
:101A20004FF8257720680169C943C90708D1C16803
:101A3000C943C90704D1891E0161204600F042F85C
:101A400020680169C943090609D4C168C943090668
:101A500005D46FF0800101612046FFF77DFE20680C
:101A60000169C943C90509D4C168C943090605D438
:101A70006FF4807101612046FFF76DFE20680169F7
:101A8000C943490609D4C168C943490605D46FF062
:101A900040010161204600F063F820680169C943F4
:101AA00089060BD4C168C943890607D46FF02001A9
:101AB00001612046BDE87040FFF74FBE70BD704722
:101AC0007047000070B5184900680968884229D13C
:101AD000164C6088401C80B26080B0F5FA7F09D156
:101AE000207801281ED102202070012110A2084672
:101AF00000F092FA6088B0F57A7F13D10020608000
:101B000010480125690205700F48FFF746F8207854
:101B1000022807D12570BDE8704001210BA20846BC
:101B200000F07ABA70BD0000480300200C000020CD
:101B3000203E53656C65637420206D6F64653C20A6
:101B40000000000008000020000400483E2053650B
:101B50006C65637420206D6F6465203C000000009C
:101B6000704770477047000070B503680446D86935
:101B7000196810F00F0508D1820606D58A0604D52B
:101B80002046BDE8704001F06DBC9A68002D66D01B
:101B900002F0010501F490762E4360D0C60707D00D
:101BA000CE0505D501261E62E36E43F00103E36610
:101BB000830708D5D30706D0266802233362E36E75
:101BC00043F00403E366430708D5D20706D0236831
:101BD00004221A62E26E42F00202E26602070AD5AD
:101BE00001F020022A4306D0236808221A62E26E1E
:101BF00042F00802E266E26E002A29D0800604D58F
:101C0000880602D5204601F02DFCE06E000703D4C3
:101C10002068806840061CD5204601F008FC20683A
:101C20008168490611D5816821F040018160606EAC
:101C300058B11C494163606EFEF7EEFD002807D0E5
:101C4000606E416BBDE8704008472046FFF78AFF91
:101C500070BD2046FFF786FF0020E06670BDC5021C
:101C60000ED552020CD54FF480101862202084F853
:101C7000690084F86A002046BDE87040FFF771BF34
:101C8000020606D50A0604D52046BDE8704001F0DC
:101C90000FBD4006E2D54806E0D52046BDE87040BD
:101CA00001F0D3BB1B34000810B5040003D094F836
:101CB000690010B107E0012010BD002084F8680021
:101CC000204600F027F8242084F869002068016885
:101CD00021F001010160204601F000FC0128EBD059
:101CE000606A10B1204601F006FB2068416821F4CB
:101CF000904141602068816821F02A01816020685C
:101D0000016841F0010101602046BDE8104001F08A
:101D100056BB000070B5224E056800212148022202
:101D20000323072486B0B54219D1C56945F40035AF
:101D3000C561C06902AD00F40030059085E81A0065
:101D40000C20CDE9000269464FF09040FEF75CFEA2
:101D5000002211462620FEF7C9FF26201BE0124E66
:101D6000B5421AD1C56945F48025C561C06902AD87
:101D700000F48020059085E81A004FF44060CDE91A
:101D8000000269460948FEF73FFE0022114627205F
:101D9000FEF7ACFF2720FEF79DFF06B070BD0000E8
:101DA0000044004000100240004800400004004889
:101DB00090F86A30202B36D199B192B190F8683002
:101DC000012B30D0012380F868304165A0F85820FD
:101DD000A0F85A208168FF22B1F5805F03D039B1A5
:101DE0000BE0012070470169D1B940F2FF1102E018
:101DF0000169A9B17F21A0F85C100021C1662222EF
:101E000080F86A2080F8681001688A6842F0010250
:101E10008A600068016841F4907101600020704799
:101E2000A0F85C20E9E7022070470000F0B41C49EC
:101E300000680968884230D11A4D297800231A4C6D
:101E40001A485B2902D05D2917D101E0037014E024
:101E500021785B2911D1164A16781649012E00D136
:101E60000E701678022E00D10E701678032E00D157
:101E70000E701278042A00D10A7029780278A154D1
:101E80000178491C01700178962900D10370F0BCDB
:101E9000012204490248FFF78BBFF0BC70470000E5
:101EA000F80300200600002048010020090000205F
:101EB0000A0000200B0000202DE9F843044690F8AA
:101EC00069001F4616460D4620284DD1CDB1C6B13A
:101ED00094F86800012847D0012084F868004FF08A
:101EE0000008C4F86C80212084F869005034FEF7A3
:101EF0005DFE24F8026B814624F852694FF4805647
:101F000018E00120BDE8F883B4F85200401EA4F8A0
:101F100052004B46002280212046009701F0FAFB38
:101F2000A0B9A068B04201D1206988B115F8010BB1
:101F300021680885B4F852000028E5D14B460022FC
:101F400040212046009701F0E5FB30B10320D9E79E
:101F500035F8020BC0F30800EAE7202084F8690096
:101F600084F868800020CDE70220CBE77047FEE7C9
:101F700010B5012000F08CF8BDE810400220FEF7FB
:101F800067BB000070B50122094DD40321462846E5
:101F9000FEF707FE0120FEF75BFB002221462846E4
:101FA000FEF7FFFDBDE870400120FEF751BB0000C9
:101FB00000040048491E012806D0022807D141F03C
:101FC000C000C0B200F064B841F08000F9E770478B
:101FD00010B52820FEF73CFB382000F059F805200A
:101FE000FEF736FB382000F053F80120FEF730FBF7
:101FF000382000F04DF8202000F01BF8FFF7C2FF5A
:10200000282000F045F8012000F042F8BDE810401B
:102010000C2000F03DB8000010B51446FFF7CAFFD1
:1020200003E000BF00F04CF8641C20780028F9D1D0
:1020300010BD70B5044600064FF400614FF09045A6
:1020400001D5012200E000222846FEF7AAFD600625
:102050004FF4806101D5012200E000222846FEF7FE
:10206000A0FDA0064FF4007101D5012200E000227E
:102070002846FEF796FDE0064FF4807101D5012257
:1020800000E000222846BDE87040FEF78ABD00004F
:1020900010B5044600224FF480410848FEF781FD48
:1020A0002046FFF7C6FFFFF76DFF2007000EFFF782
:1020B000C0FFBDE81040FFF765BF00000004004806
:1020C00010B50446012291030748FEF76AFD204639
:1020D000FFF7AFFFFFF756FF2007000EFFF7A9FF3E
:1020E000BDE81040FFF74EBF000400482DE9F04165
:1020F000474886B0416941F400214161416901F4DA
:1021000000210591416941F480014161416901F477
:1021100080010591416941F400314161416901F457
:1021200000310591416941F4802141614069394E96
:1021300000F480204FF400540590002221463046E0
:10214000FEF72FFD4FF09047012240F6727138469E
:10215000FEF727FD00224FF484513846FEF721FD9B
:10216000DFF8B480002243F241014046FEF719FD3A
:1021700001224CF210314046FEF713FD0094012479
:102180000025CDE90145694630460395FEF73CFC44
:1021900041F6F2708DE83100694638460394FEF747
:1021A00033FC4FF251308DE83100694640460394CC
:1021B000FEF72AFC0620CDE9000569464046029557
:1021C000FEF722FCA82000901448CDE901046946DE
:1021D0004046FEF719FC2004FEF7EEFCA004FEF7D3
:1021E000EBFCE004FEF7E8FC002211460920FEF7B4
:1021F0007DFD0920FEF76EFD002211461720FEF737
:1022000075FD1720FEF766FD06B0BDE8F081000001
:10221000001002400008004800040048000021109F
:1022200010B5184888B04FF0804101604FF4E1517B
:102230000024C0E901140921C0E90314802181614F
:10224000FFF7B8FA18B13F210FA001F0A2FA4FF43E
:102250008050039003A90B48FFF7F0FA18B145210D
:1022600009A001F096FA0094694606480294FFF727
:1022700075FA002803D04C2103A001F08AFA08B0B7
:1022800010BD0000480300202E2E2F5372632F74C0
:10229000696D2E63000000000E4810B50C49016006
:1022A0004FF416414160002181600C22C160C0E9F9
:1022B00004128161C16101624162FFF7F5FC0028EF
:1022C00005D0BDE81040452103A001F062BA10BD61
:1022D00000440040880300202E2E2F5372632F7578
:1022E000736172742E6300000E4810B50C490160D2
:1022F0004FF416414160002181600C22C160C0E9A9
:1023000004128161C16101624162FFF7CDFC0028C6
:1023100005D0BDE810405A2103A001F03ABA10BD23
:1023200000480040F80300202E2E2F5372632F75B3
:10233000736172742E630000FEE770470907090E8F
:10234000002806DA00F00F0000F1E02080F8141DEC
:10235000704700F1E02080F80014704770470000DB
:102360002DE9F0418EB0804600241C4E1C4D1D4FBF
:102370002BE0325D0AB9285D28B341460020FEF704
:102380003EF82A5D41460120FEF739F84FF4FA6025
:10239000FEF768FA34216846FDF73BFF12482246F3
:1023A00012A130F91430684601F0F4F96846FDF7DF
:1023B00047FF82B24FF4967369461148FFF77CFDE0
:1023C000C820FEF74FFA641CE4B2B7F94C00801E37
:1023D000A042CEDC0EB0BDE8F08100001603002064
:1023E0002F030020DE0100202C0200205B43414C23
:1023F00049425F5444532C313A25643A25645D00C8
:10240000F80300202DE9F14F86B0FFF7B1FD01215F
:102410005BA20846FFF700FE5EA201210220FFF743
:10242000FBFDFF20604CADF8000000252570024642
:1024300001200699FDF7E3FFFF2200200699FDF732
:10244000DEFF4FF0030984F80090584F38780328D6
:10245000FCD13D7038780328FCD13D7038780328D2
:10246000FCD13D70A04625705148FEF739F8002494
:10247000504E7BE05048007801287DD022464FA185
:1024800001A801F087F901AA01210220FFF7C4FD8C
:102490004748069930F9111036F9140081425FDD82
:1024A00023466A460020069900F05EFABDF9000056
:1024B000002802DA4648055556E0ADF8000000B2A3
:1024C000002847DB3C490978012955D0C2B20020D9
:1024D0000699FDF794FF414688F800903D703878E2
:1024E0000328FCD13D700D703148FDF7F9FF3048ED
:1024F000069930F9110036F9141088420DDD34497F
:1025000082463231324A21F81400BDF8000000F052
:10251000FF0B02F804B0401ECFE725480699DFF80C
:10252000B0E030F911100EF132020EF804B022F8CA
:1025300014A0B6F94C3007E0641CE4B2A34209D001
:102540000EF804B022F814A006EB4400B0F9020023
:102550008842F1DA1848007801280DD004E00BE039
:102560001C480178491C0170641CE4B2B6F94C00A7
:10257000801EA0423FF77EAF07B0BDE8F08F00009D
:1025800050524F43455353494E472052202020205C
:10259000000000003130306B2D737465703A2020DC
:1025A00020202020000000000A0000200B00002056
:1025B0007A020020DE010020070000203130306B5D
:1025C0002D737465703A20202020253264000000AD
:1025D00024000020000000202DE9F14F8CB0DFF82E
:1025E00098914FF0FF0AADF808A0002689F8006026
:1025F000DFF88881DFF888B1624F98F80040624DBB
:102600007CE001287ED0224660A104A801F0C2F837
:1026100004AA01210220FFF7FFFC59480C99193840
:10262000025D0020FDF7EBFE554805EB4401193033
:1026300030F91400019035F9140031F9021C884278
:102640000ED10BEB04014E4811F8011C0BF80410DD
:10265000193000EB440131F8021C20F814104BE053
:1026600047481938015D2044099010F8010C814257
:1026700005D0234602AA01200C9900F075F9BDF996
:102680000800002802DA0BF8046035E0ADF8080015
:102690002BE03978012969D0C2B201200C99FDF7ED
:1026A000AEFE03204A4689F800003D4806700178D6
:1026B0000329FCD1067016703A48FDF711FF39481E
:1026C0000C9930F9110035F91410884221DD2C499C
:1026D0000190193121F81400BDF80810C8B2089013
:1026E0000BF80400491EADF80810BDF908000028D9
:1026F000CFDA3878012839D0641CE4B2B5F94C003F
:10270000801E00E032E0A04238783FF77AAF40B355
:102710002CE024480C9930F9110035F814100A1AED
:1027200013B2019A511A09B28B42154901F11901EC
:1027300003DD21F81420089803E021F81400BDF807
:1027400008000BF804000E481938015D099840781C
:10275000814203D10898ADF80800CAE7ADF808A097
:10276000C7E711A201210220FFF756FC88F800609C
:102770000DB0BDE8F08F00000A000020000000202E
:102780003D00002007000020DE010020316B2D738A
:102790007465703A2020202020202532640000003B
:1027A0000B0000207A020020202020646F6E65213B
:1027B00020202020202020200000000010B510B193
:1027C000012804D009E064230D2212A102E0642351
:1027D0000D2214A11748FFF76FFB174A0120107054
:1027E0001648002101700378012BFCD11170017093
:1027F0001348FDF775FE1249022000BF31F8102082
:1028000001EB4003401CC0B223F8042C1928F5D377
:1028100010BD00005B4144435F5441424C452C30A5
:102820005D0000005B4144435F5441424C452C3104
:102830005D000000F80300200A0000200B000020CB
:10284000DE01002064230C2201A10548FFF734BB00
:102850005B44454255475F454E2C315D000000000A
:10286000F803002010B510B1012804D009E064235A
:102870000D2212A102E064230D2214A11748FFF7D4
:102880001BFB174A012010701648002101700378C5
:10289000012BFCD1117001701348FDF721FE124984
:1028A000022000BF31F8102001EB4003401CC0B2F1
:1028B00023F8042C1928F5D310BD00005B544453B1
:1028C0005F5441424C452C305D0000005B54445342
:1028D0005F5441424C452C315D000000F80300205C
:1028E0000A0000200B0000202C02002010B56423F9
:1028F0000C2208A10B48FFF7DFFA0B4C0122510311
:102900002046FEF74EF920460122BDE81040110393
:10291000FEF747B95B44454255475F454E2C305D55
:1029200000000000F80300200004004870B50A48C9
:102930000A4A0B4B90F84C0002F11904801EC1B2F8
:102940000020084D05E0165C1E54265C2E54401CE9
:10295000C0B28842F7D370BDDE0100202400002001
:10296000160300202F0300202DE9F05FDFF87CB074
:10297000DFF87C901E461546884607464FF0000A51
:10298000B5F9004017B1012F04D005E004EBD47075
:10299000401000E0601F28802A7841463846FDF745
:1029A0002EFD03205A468BF800005046494689F810
:1029B00000A00B78032BFCD108700B78032BFCD103
:1029C000087010700B48FDF78BFD0A480A4930F972
:1029D000180021F81600094931F91610814201DA70
:1029E000002CCDD12C80BDE8F09F00000A00002013
:1029F0000B0000207A02002056000020DE0100209B
:102A00002DE9F04186B00025CDE90005DFF86C80A6
:102A100004460127694602974046FDF7F5FF002668
:102A200021464046FEF7B4F838B10025761CF6B2D0
:102A30000A2EF5D30A2D06D014E06D1CEDB20A2043
:102A4000FDF706FEF2E7082C04D0202C05D0802CE0
:102A500006D007E001F03EF904E001F027F901E0BB
:102A600001F08CF906486946CDE9004002974046DE
:102A7000FDF7CAFF06B0BDE8F08100000004004881
:102A800000002110704710B5FEF7AAF8BDE810400D
:102A9000FEF75DBE30B59FB001210804CDE90010FE
:102AA0000024029402250491CDE907504FF4E01070
:102AB00009906846FEF762FB00B1FEE70F20CDE902
:102AC00019054FF48060CDE91B40022119A81D941F
:102AD000FEF74AFA00B1FEE706200A900D940E9424
:102AE0000AA8FEF735F900B1FEE7FEF7DFFA4FF46A
:102AF0007A71B0FBF1F0FEF716FE0420FEF706FE39
:102B000000221146501EFEF7F1F81FB030BD000044
:102B10001448016841F4700101601348016841F0F4
:102B2000010101604168114A114041600168104A89
:102B300011400160016821F480210160416821F4A5
:102B4000FE014160C16A21F00F01C162016B094AB7
:102B500011400163002181600249C003803908608F
:102B60007047000088ED00E0001002400CC07FF8C4
:102B7000FFFFF6FECCFC00FF2DE9F05FDFF840A17F
:102B80000024DFF84091DFF840B1504F504E8AF8F2
:102B900000402546307801287ED0042189F80010B5
:102BA000D8468BF80040062D11D2DFE805F0030867
:102BB00033383D42002000F075FA46A203E00120C0
:102BC00000F070FA48A201210846FFF725FA317893
:102BD00040460278042A02D00129FAD13C700470E0
:102BE00089F800404548FDF77BFC444840880028B0
:102BF00024D043A201210220FFF70EFA9AF8000028
:102C0000401C8AF80000062D36D2DFE805F01D20B2
:102C100024282C30002000F019FA3EA2D3E701202E
:102C200000F014FA40A2CEE7002000F085FA43A29B
:102C3000C9E7012000F080FA45A2C4E749A20121BA
:102C40000220FFF7E9F917E04BA1504812E04F4886
:102C50004FA110300EE04D4852A120300AE04B4801
:102C600055A1303006E0494858A1403002E04748BD
:102C70005BA1503000F08EFD3078012813D04FF06A
:102C800000081420FDF7EEFD307801280ED008F181
:102C9000010808F0FF0800E005E0B8F1C80FF0D324
:102CA000307828B106E03C70BDE8F09F3C7001E050
:102CB000FFF75EF96D1CEDB2062DFFF46BAFF3E785
:102CC000040000200A0000200B0000200500002066
:102CD00007000020436865636B204154206C6F77C8
:102CE0002020202000000000436865636B204154D1
:102CF000206869676820202000000000C8020020CA
:102D0000726573756C743A2066616C73652121215C
:102D100000000000436865636B204143206C6F77BF
:102D20002020202000000000436865636B204143A1
:102D30002068696768202020000000004368656300
:102D40006B20444F31206C6F772020200000000062
:102D5000436865636B20444F3120686967682020B1
:102D600000000000726573756C743A206F6B21214E
:102D700021212121000000004154206C6F77206642
:102D8000616C73652020202000000000A800002056
:102D9000415420686967682066616C736520202053
:102DA000000000004143206C6F772066616C736502
:102DB000202020200000000041432068696768202F
:102DC00066616C736520202000000000444F3120B4
:102DD0006C6F772066616C73652020200000000016
:102DE000444F3120686967682066616C73652020F4
:102DF000000000002DE9F05F0025DFF860B1DFF88A
:102E000060A1DFF86081584C2E462078012847D019
:102E100035B1012D0BD0022D34D0032D11D138E066
:102E2000012000F0B7F94FF0000950A205E00020A2
:102E300000F0B0F94FF0010951A201210846FFF757
:102E4000EBF800270A20FDF70DFD2078012827D098
:102E50007F1CFFB2642FF5D3022D28D204215846DF
:102E6000FDF796FE484528D09AF8001049A2491C63
:102E70008AF8001001210220FFF7CEF89DB14AA187
:102E80004E482FE0012000F039F94FF000094CA224
:102E9000D3E7002000F032F94FF001094DA2CCE752
:102EA00088F8006042E045484FA110301AE0022146
:102EB0005846FDF76DFE484505D150A2012102207C
:102EC000FFF7AAF810E09AF8001032A2491C8AF81D
:102ED000001001210220FFF79FF8022D16D037487D
:102EE0004BA1203000F056FC20780128D8D00027D4
:102EF0000A20FDF7B7FC207801280BD07F1CFFB219
:102F0000C82FF5D310F0FF0F07D008E02B4845A1DC
:102F10003030E7E788F8006001E0FFF729F86D1C22
:102F2000EDB2042DFFF471AF207810B12670BDE82A
:102F3000F09F012140A20846FFF76EF800250A2005
:102F4000FDF790FC2078012804D06D1CEDB2C82D4F
:102F5000F5D3ECE788F80060E9E7000000040048DA
:102F6000040000200500002007000020436865637E
:102F70006B2056616E204F4E202020200000000064
:102F8000436865636B2056616E204F4646202020C3
:102F900000000000726573756C743A2066616C7392
:102FA000652121210000000056616E204F666620D9
:102FB00066616C736520202000000000080100207D
:102FC000436865636B20426F6D204F4E20202020A8
:102FD00000000000436865636B20426F6D204F4620
:102FE000462020200000000056616E204F6E2066B3
:102FF000616C7365202020200000000072657375ED
:103000006C743A206F6B21212121212100000000E6
:10301000426F6D204F66662066616C7365202020CC
:1030200000000000426F6D204F6E2066616C73657A
:103030002020202000000000636865636B20494F5A
:1030400020646F6E652121210000000010B50B4C3B
:103050004FF064034FF00E0250B109A10C48FEF787
:103060002BFF00222046BDE810400121FDF799BD4D
:1030700008A10748FEF720FF0122F3E700040048FB
:103080005B494E5F434845434B2C323A315D00006B
:10309000F80300205B494E5F434845434B2C323ACE
:1030A000305D000010B54FF090444FF064034FF0D6
:1030B0000E0250B108A10C48FEF7FEFE0022204689
:1030C000BDE810408021FDF76CBD08A10648FEF761
:1030D000F3FE0122F3E700005B494E5F434845439E
:1030E0004B2C313A315D0000F80300205B494E5F04
:1030F000434845434B2C313A305D00004FF06403A8
:103100004FF00D0218B103A10648FEF7D5BE06A187
:10311000FAE700005B4F55545F5345542C323A3167
:103120005D000000F80300205B4F55545F53455489
:103130002C323A305D00000070B54FF480544FF0EF
:1031400090454FF064034FF00E0250B108A10C48B7
:10315000FEF7B2FE002221462846BDE87040FDF78A
:1031600020BD08A10648FEF7A7FE0122F3E70000F4
:103170005B494E5F434845434B2C333A315D000079
:10318000F80300205B494E5F434845434B2C333ADC
:10319000305D00004FF064034FF00D0218B103A141
:1031A0000648FEF789BE06A1FAE700005B4F5554BA
:1031B0005F5345542C313A315D000000F803002084
:1031C0005B4F55545F5345542C313A305D0000003D
:1031D0000148FEF7B2BB0000480300202DE9F04390
:1031E0000268234B234D244E244C4FF080499842D3
:1031F00007D0484505D0A84203D0B04201D0A04234
:1032000003D122F070074A683A431D4FDFF874C0BB
:10321000DFF8748098420DD048450BD0A84209D001
:10322000B04207D0A04205D0B84203D0604501D0DB
:10323000404503D122F44075CA682A434D6922F003
:1032400080022A4302608A68C2620A6882629842E7
:1032500007D0A04205D0B84203D0604501D0404518
:1032600001D10969016301214161BDE8F0830000DA
:10327000002C0140000400400008004000340140E0
:1032800000400140004401400048014010B58468FE
:1032900042EA032224F47F440A432243826010BDA1
:1032A000826822F070020A4342F007018160704791
:1032B00010B5036A046A24F001040462846924F0EE
:1032C000F00444EA021423F00A020A438461026211
:1032D00010BD10B5036A23F0100303628369046A0A
:1032E00023F4704343EA023224F0A00343EA0111BD
:1032F0008261016210BD90F82410C90706D00168F0
:103300004A68836A22F400321A434A6090F8241013
:10331000890706D501684A68C36A22F480321A43D5
:103320004A6090F82410490706D501684A68036B83
:1033300022F480221A434A6090F82410090706D527
:1033400001684A68436B22F400421A434A6090F8CD
:103350002410C90606D501688A68836B22F480525E
:103360001A438A6090F82410890606D501688A6895
:10337000C36B22F400521A438A6090F82410490665
:1033800011D501684A68036C22F480121A434A601E
:10339000016CB1F5801F06D101684A68436C22F4C4
:1033A000C0021A434A6090F82410090606D5016845
:1033B0004A68806C22F4002202434A607047F8B5E4
:1033C00000260446C666FDF7F1FB05462068006846
:1033D0006FF07E47000708D52B4600224FF40011FE
:1033E0002046009700F096F960B920680068400711
:1033F0000AD52B4600224FF480012046009700F0AA
:1034000089F908B10320F8BD202084F8690084F808
:103410006A0084F868600020F8BD10B5406A002199
:10342000A0F85A10A0F85210FEF79CFB10BD0168DE
:103430000A6822F490720A6001688A6822F0010228
:103440008A60202180F86A10704710B501680A6808
:1034500022F040020A60202180F86910FEF786FD04
:10346000002010BD10B5B0F85C2090F86A300168FB
:10347000222B05D0886940F008008861022010BD29
:10348000898C8368B3F5805F01D103696BB111400A
:10349000426D531C43651170B0F85A10491E09045F
:1034A000090CA0F85A1007D015E0436D114019809F
:1034B000416D891C4165EFE701680A6822F490724A
:1034C0000A6001688A6822F001028A60202180F87F
:1034D0006A10FEF7ABFC002010BD00002DE9F041A2
:1034E000044610202369A268E6691A436369002133
:1034F00033431A4323680D461E6849F20C67BE43E6
:1035000016431E6022685368E66823F44053334331
:103510005360236AA2691A4323689E6826F43066C2
:1035200016439E605A4F22685A4B0603BA420CD18A
:103530001B6B13F0030306D0012B4DD0022B4DD093
:10354000032B4CD146E0012049E0534FBA420CD145
:103550001B6B13F440333BD0B3423DD0B3F5003F77
:103560003CD0B3F5403F3AD134E04C4FBA420DD194
:103570001B6B13F440232BD0B3F5802F2CD0B3F565
:10358000002F2BD0B3F5402F29D123E0444FBA426E
:103590000DD11B6B13F440131AD0B3F5801F1BD051
:1035A000B3F5001F1AD0B3F5401F18D112E03D4FFC
:1035B000BA4214D11B6B13F4400309D0B3F5800F4A
:1035C0000AD0B3F5000F09D0B3F5400F07D101E0E1
:1035D000002004E0022002E0042000E00820E76967
:1035E0004FF400439F4226D109281DD2DFE800F0A6
:1035F0000508121C151C1C1C1800FDF75DFD01E0E0
:10360000FDF772FD4100606801EB5001B1FBF0F085
:1036100081B20AE024496068F6E7FDF77DFDF1E735
:10362000606806EB5001F1E7012521F00F00C1F3BE
:10363000420108431CE0092825D2DFE800F0050814
:103640000B24102424241C00FDF736FD09E0FDF7AF
:103650004BFD06E01549606801EB50010EE0FDF7F7
:103660005BFD0146606801EB5001B1FBF0F080B2F8
:103670002168C86008E0606803EB5001B1FBF0F01E
:1036800080B2D06000E001252846BDE8F08100004E
:103690000038014000100240004400400048004053
:1036A000004C0040005000400024F40000127A005A
:1036B00090F86910212901D002207047B0F852100B
:1036C00021B18168B1F5805F0BD00CE001680A6818
:1036D00022F080020A600068016841F04001016048
:1036E0000CE0016961B1C16C4A1CC26402680978CE
:1036F000A2F8281030F8521F491E018000207047A0
:10370000C16C02680988C1F308011185C16C891C6C
:10371000C164EFE72DE9F041984617460E4604468E
:10372000069D1DE0681C1BD02DB1FDF73FFAA0EBF4
:103730000800A84214D92068016821F4D071016002
:103740002068816821F001018160202084F86900EF
:1037500084F86A00002084F868000320BDE8F08146
:103760002068C06936EA000004D00020B842D9D0F1
:103770000020F3E70120F9E70148FEF7F5B9000062
:10378000880300200148FEF7EFB90000F80300208D
:10379000FEE7FEE70FB4084B10B504A902AA039890
:1037A00000F0DEF8044602A9002000F07AFA204674
:1037B00010BC5DF814FB0000A33C000800487047F3
:1037C0002000002002E008C8121F08C1002AFAD118
:1037D00070477047002001E001C1121F002AFBD191
:1037E0007047000010B504461FA12448FFF7D2FF20
:1037F0002348112C8078A0F1140006D0052826D289
:10380000DFE800F0181A1C1E200005280AD2DFE8A5
:1038100000F003050B0D0F001AA100E01EA11748D0
:10382000FFF7B8FF21A10EE025A1F8E729A1F6E7EF
:103830002DA1F4E731A106E035A104E039A102E0B1
:103840003DA100E041A10D481030FFF7A3FF012189
:103850000A4A0846FEF7E0FB084A01211032BDE89B
:1038600010400220FEF7D8BB202053656C656374BE
:1038700020206D6F6465202000000000880000207B
:10388000010000202020646F206E6F7468696E67ED
:10389000202020200000000020207465737420691F
:1038A0006F206D6F64652020000000002120656E90
:1038B00074657220746F2072756E20210000000004
:1038C000202063616C6962206D6F64652020202078
:1038D00000000000202063616C63756C61746520DA
:1038E0006D6F646500000000202073656E642064C5
:1038F000617461206D6F646500000000202020204D
:103900006E6F7468696E6720202020200000000020
:10391000202020207465737420696F2020202020CF
:1039200000000000202020202063616C69622020BC
:103930002020202000000000202063616C63756C53
:103940006174652052202020000000002020736553
:103950006E6420746F20504320202020000000005F
:103960002DE9FF4F8BB088460546002606E0252846
:103970000BD0DDE90D1290476D1C761C28780028CD
:10398000F5D10FB03046BDE8F08F0024A146A24625
:103990000122AE4900E0044315F8013F203B02FA42
:1039A00003F00842F7D128782A2810D06FF02F02B0
:1039B0002878A0F13001092915D809EB890102EB1B
:1039C000410144F0020400EB01096D1CF0E758F8D6
:1039D000041B5FEA010903D544F40054C9F100094E
:1039E00044F002046D1C28782E2817D115F8010F19
:1039F00044F004042A280ED06FF02F022878A0F19A
:103A0000300109290AD80AEB8A0102EB410100EBD7
:103A1000010A6D1CF2E758F804AB6D1C28786C287D
:103A20000FD006DC4C2817D068280DD06A2814D196
:103A300004E0742810D07A280FD10DE044F400146B
:103A40000AE044F4801401E044F4401469788142AF
:103A500002D104F580146D1C6D1C2878692865D08E
:103A600006DC00288DD0632827D0642806D15DE0CD
:103A70006E2808D073282AD0752877D0DDE90D127A
:103A80009047761CE0E0C4F30250022809D00328D6
:103A90000DD0D8F8001004280DD00E6008F10408ED
:103AA000D2E0D8F80010F217C1E90062F6E7D8F8C2
:103AB00000100E80F2E70E70F0E718F8041B8DF886
:103AC000001000208DF80100EB46012003E058F8BB
:103AD00004BB4FF0FF3061074FF0000701D40AE04C
:103AE0007F1C57450DDA8742FADB1BF807100029C7
:103AF000F6D106E07F1C8742FCDB1BF8071000298B
:103B0000F8D1DDE90D23A9EB07008146214600F03D
:103B1000B1F83044C61904E0DDE90D121BF8010BC1
:103B200090477F1EF8D22146484688E058F8040B9B
:103B3000C4F302514FF00A0B032900D100B204294B
:103B400000D140B2002802DA40422D2102E02105D6
:103B500005D52B218DF82410012104E006E0E107B2
:103B600010D02021F6E708AF089113E058F8040BB5
:103B7000C4F302514FF00A0B032900D180B204298B
:103B800000D1C0B20021EEE75946FCF776FB303198
:103B900007F8011D0028F7D1ADEB070000F1200B5D
:103BA000600702D524F4803401E04FF0010ADA45C1
:103BB00002DDAAEB0B0000E00020824600EB0B01C7
:103BC00008980144A9EB01000A90E00306D4DDE95E
:103BD0000D2321460A9800F04DF806444FF00009E5
:103BE00008E009A911F80900DDE90D12904709F173
:103BF0000109761C08998945F3DBE0030CD5DDE962
:103C00000D2321460A9800F035F8064404E0DDE96A
:103C10000D1230209047761CBAF10001AAF1010A7A
:103C2000F5DC05E0DDE90D1217F8010B9047761C75
:103C3000BBF10001ABF1010BF4DC0A982146DDE990
:103C40000D2300F005F806446D1C97E609280100D5
:103C50002DE9F041044600251E461746880404D489
:103C600005E039462020B0476D1C641EF9D5284672
:103C7000BDE8F0812DE9F041044600251E4690463E
:103C8000C80301D5302700E02027880404D505E0CB
:103C900041463846B0476D1C641EF9D52846BDE83C
:103CA000F0810A68531C0B60107070470848017857
:103CB00000290CD010290AD18178491EC9B281701F
:103CC000142901D2182181701320FFF78BBD704792
:103CD0000100002070B5184A00230124107817490C
:103CE000032813D0042811D00878154D98B1102856
:103CF00018D0192809D0202807D0212805D022283B
:103D000018D0232801D10420107070BD0D48047014
:103D100013700B7070BD102008702C70BDE87040DF
:103D200000F0E4B82B7000F00FF8BDE870401120EF
:103D3000FFF758BD0320E7E7050000200100002041
:103D40000C000020070000200B48817814290BD0BC
:103D500015290BD016290BD017290BD0182902D101
:103D600023214170017070471921FAE72021F8E7FB
:103D70002121F6E72221F4E701000020084801781C
:103D800000290CD010290AD18178491CC9B2817050
:103D9000182901D9142181701220FFF723BD704723
:103DA00001000020FCF724FFFEF774FEFEF79EF9E9
:103DB000FEF736FAFEF770FAFEF796FAFEF796FD72
:103DC000012232493248FDF7F3FF3248FDF72AFD60
:103DD000FEF7FEF8012130A20846FEF71DF933A2D6
:103DE00001210220FEF718F9354A364E1923A2F1B7
:103DF00019013046FCF7BCFC0021FF220846FCF705
:103E0000FEFA224C0025641E217803290CD00229D9
:103E10002BD0012934D00429F6D1E0780028F3D042
:103E2000FCF7A4FBE570EFE70120FEF7C7FC0120DB
:103E3000FEF718FDFEF706FD0120FEF7E3FA01206C
:103E4000FEF7CAFBA07810B1A5702570DCE7012051
:103E5000FEF76CFD1A4A1923A2F119013046FCF74E
:103E6000A3FCFEF785F818A205E00120FEF778FA1A
:103E7000FEF77EF819A201210846FEF7CDF8E4E727
:103E8000FEF77AFEFEF7B6FFBEE700000600002050
:103E9000F8030020480300205F5F5F5F5F5F4952C7
:103EA0004F335F5F5F5F5F5F000000002D2D2D2DA2
:103EB0002D2D2D2D2D2D2D2D2D2D2D2D00000000E6
:103EC0002F03002000F000082050524F4345535369
:103ED000205220444F4E4520000000002043414C1A
:103EE000494220444F4E45202020200010B514A107
:103EF0001848FFF74FFC18488078143805280BD273
:103F0000DFE800F0030517191B0014A100E018A159
:103F100010481030FFF73EFC01210E4A0846FEF71C
:103F20007BF80C4A01211032BDE810400220FEF758
:103F300073B814A1ECE718A1EAE71CA1E8E70000B8
:103F4000202053656C65637420206D6F64652020AC
:103F50000000000088000020010000202020202018
:103F60006E6F7468696E67202020202000000000BA
:103F7000202020207465737420696F202020202069
:103F8000000000002020202063616C696220202056
:103F900020202020000000002020202063616C638E
:103FA000756C6174652052200000000020202020E4
:103FB00073656E6420746F20504320200000000061
:103FC00000000000000000000100000000000000F0
:103FD00000000000010000000000000000000000E0
:103FE000010000003130306B3A207B0000000000FF
:103FF00000000000000000000000000000000000C1
:1040000000000000000000000000000000000000B0
:1040100000000000000000000000000000000000A0
:104020000000000000000000000000000000000090
:104030000000000000000000000000000000000080
:104040000000000000000000020304050607080944
:104050000A0B0C0D0E0F10100102030405060708D1
:10406000090A0B0C0D0E0F100000000000000000EC
:10407000010203040607080900000000010203040E
:10408000004040404040404040404141414141406B
:104090004040404040404040404040404040404020
:1040A00040050202020202020202020202020202AF
:1040B00002202020202020202020200202020202B4
:1040C000020290909090909010101010101010100C
:1040D0001010101010101010101010100202020218
:1040E000020288888888888808080808080808085C
:1040F0000808080808080808080808080202020258
:104100004000000081400008284100080000002015
:1041100024000000C43700084C410008240000209F
:1041200064080000D43700080000001400000000FC
:10413000000000000000000001000000100000006E
:0C4140000000000000127A0000000000E7
:040000050800018965
:00000001FF
